{
  "contractName": "Adoption",
  "abi": [
    {
      "inputs": [],
      "stateMutability": "nonpayable",
      "type": "constructor"
    },
    {
      "inputs": [
        {
          "internalType": "uint256",
          "name": "",
          "type": "uint256"
        }
      ],
      "name": "adopters",
      "outputs": [
        {
          "internalType": "address",
          "name": "",
          "type": "address"
        }
      ],
      "stateMutability": "view",
      "type": "function",
      "constant": true
    },
    {
      "inputs": [],
      "name": "owner",
      "outputs": [
        {
          "internalType": "address",
          "name": "",
          "type": "address"
        }
      ],
      "stateMutability": "view",
      "type": "function",
      "constant": true
    },
    {
      "inputs": [
        {
          "internalType": "uint256",
          "name": "petId",
          "type": "uint256"
        }
      ],
      "name": "adopt",
      "outputs": [
        {
          "internalType": "uint256",
          "name": "",
          "type": "uint256"
        }
      ],
      "stateMutability": "nonpayable",
      "type": "function"
    },
    {
      "inputs": [],
      "name": "getAdopters",
      "outputs": [
        {
          "internalType": "address[16]",
          "name": "",
          "type": "address[16]"
        }
      ],
      "stateMutability": "view",
      "type": "function",
      "constant": true
    }
  ],
  "bytecode": "0x608060405234801561001057600080fd5b50336000806101000a81548173ffffffffffffffffffffffffffffffffffffffff021916908373ffffffffffffffffffffffffffffffffffffffff16021790555061046b806100606000396000f3fe608060405234801561001057600080fd5b506004361061004c5760003560e01c80633de4eb171461005157806343ae80d31461006f5780638588b2c51461009f5780638da5cb5b146100cf575b600080fd5b6100596100ed565b604051610066919061037e565b60405180910390f35b6100896004803603810190610084919061029e565b61016e565b6040516100969190610363565b60405180910390f35b6100b960048036038101906100b4919061029e565b6101a4565b6040516100c6919061039a565b60405180910390f35b6100d7610242565b6040516100e49190610363565b60405180910390f35b6100f5610266565b6001601080602002604051908101604052809291908260108015610164576020028201915b8160009054906101000a900473ffffffffffffffffffffffffffffffffffffffff1673ffffffffffffffffffffffffffffffffffffffff168152602001906001019080831161011a575b5050505050905090565b6001816010811061017e57600080fd5b016000915054906101000a900473ffffffffffffffffffffffffffffffffffffffff1681565b60008082101580156101b75750600f8211155b6101c057600080fd5b33600183601081106101fb577f4e487b7100000000000000000000000000000000000000000000000000000000600052603260045260246000fd5b0160006101000a81548173ffffffffffffffffffffffffffffffffffffffff021916908373ffffffffffffffffffffffffffffffffffffffff160217905550819050919050565b60008054906101000a900473ffffffffffffffffffffffffffffffffffffffff1681565b604051806102000160405280601090602082028036833780820191505090505090565b6000813590506102988161041e565b92915050565b6000602082840312156102b057600080fd5b60006102be84828501610289565b91505092915050565b60006102d383836102df565b60208301905092915050565b6102e8816103e2565b82525050565b6102f7816103e2565b82525050565b610306816103bf565b61031081846103d7565b925061031b826103b5565b8060005b8381101561034c57815161033387826102c7565b965061033e836103ca565b92505060018101905061031f565b505050505050565b61035d81610414565b82525050565b600060208201905061037860008301846102ee565b92915050565b60006102008201905061039460008301846102fd565b92915050565b60006020820190506103af6000830184610354565b92915050565b6000819050919050565b600060109050919050565b6000602082019050919050565b600081905092915050565b60006103ed826103f4565b9050919050565b600073ffffffffffffffffffffffffffffffffffffffff82169050919050565b6000819050919050565b61042781610414565b811461043257600080fd5b5056fea2646970667358221220618fe079813d7bcf3f66e7359648bcba1b034dbeff6fb3f17c0364aa224ec98264736f6c63430008000033",
  "immutableReferences": {},
  "source": "//SPDX-License-Identifier: GPL-3.0\n\npragma solidity ^0.8.0;\n\ncontract Adoption{\n    address public owner;\n    address[16] public adopters;\n\n    constructor(){\n        owner = msg.sender; \n    }\n\n    // Adopting a cat.\n    function adopt(uint petId) public returns(uint){\n        require(petId >= 0 && petId <= 15);\n\n        adopters[petId] = msg.sender;\n\n        return petId;\n    }\n\n    // Retrieving the adopters.\n    function getAdopters() public view returns(address[16] memory){\n        return adopters;\n    }\n\n\n}",
  "sourcePath": "/home/lenha/Documents/Web/Pet-shop/contracts/Adoption.sol",
  "compiler": {
    "name": "solc",
    "version": "0.8.0+commit.c7dfd78e.Emscripten.clang"
  },
  "schemaVersion": "3.4.4",
  "updatedAt": "2022-01-18T18:55:02.763Z",
  "networkType": "ethereum",
  "devdoc": {
    "kind": "dev",
    "methods": {},
    "version": 1
  },
  "userdoc": {
    "kind": "user",
    "methods": {},
    "version": 1
  }
}